{
	"_format": "hh-sol-artifact-1",
	"contractName": "RewardToken",
	"sourceName": "contracts/RewardToken/RewardToken.sol",
	"abi": [
		{
			"inputs": [
				{
					"internalType": "string",
					"name": "baseURI",
					"type": "string"
				},
				{
					"internalType": "string",
					"name": "_name",
					"type": "string"
				},
				{
					"internalType": "string",
					"name": "_symbol",
					"type": "string"
				},
				{
					"internalType": "address",
					"name": "flowContract",
					"type": "address"
				}
			],
			"stateMutability": "nonpayable",
			"type": "constructor"
		},
		{
			"inputs": [
				{
					"internalType": "address",
					"name": "sender",
					"type": "address"
				},
				{
					"internalType": "uint256",
					"name": "balance",
					"type": "uint256"
				},
				{
					"internalType": "uint256",
					"name": "needed",
					"type": "uint256"
				},
				{
					"internalType": "uint256",
					"name": "tokenId",
					"type": "uint256"
				}
			],
			"name": "ERC1155InsufficientBalance",
			"type": "error"
		},
		{
			"inputs": [
				{
					"internalType": "address",
					"name": "approver",
					"type": "address"
				}
			],
			"name": "ERC1155InvalidApprover",
			"type": "error"
		},
		{
			"inputs": [
				{
					"internalType": "uint256",
					"name": "idsLength",
					"type": "uint256"
				},
				{
					"internalType": "uint256",
					"name": "valuesLength",
					"type": "uint256"
				}
			],
			"name": "ERC1155InvalidArrayLength",
			"type": "error"
		},
		{
			"inputs": [
				{
					"internalType": "address",
					"name": "operator",
					"type": "address"
				}
			],
			"name": "ERC1155InvalidOperator",
			"type": "error"
		},
		{
			"inputs": [
				{
					"internalType": "address",
					"name": "receiver",
					"type": "address"
				}
			],
			"name": "ERC1155InvalidReceiver",
			"type": "error"
		},
		{
			"inputs": [
				{
					"internalType": "address",
					"name": "sender",
					"type": "address"
				}
			],
			"name": "ERC1155InvalidSender",
			"type": "error"
		},
		{
			"inputs": [
				{
					"internalType": "address",
					"name": "operator",
					"type": "address"
				},
				{
					"internalType": "address",
					"name": "owner",
					"type": "address"
				}
			],
			"name": "ERC1155MissingApprovalForAll",
			"type": "error"
		},
		{
			"anonymous": false,
			"inputs": [
				{
					"indexed": true,
					"internalType": "address",
					"name": "account",
					"type": "address"
				},
				{
					"indexed": true,
					"internalType": "address",
					"name": "operator",
					"type": "address"
				},
				{
					"indexed": false,
					"internalType": "bool",
					"name": "approved",
					"type": "bool"
				}
			],
			"name": "ApprovalForAll",
			"type": "event"
		},
		{
			"anonymous": false,
			"inputs": [
				{
					"indexed": true,
					"internalType": "uint256",
					"name": "tokenID",
					"type": "uint256"
				},
				{
					"indexed": true,
					"internalType": "address",
					"name": "creator",
					"type": "address"
				},
				{
					"indexed": true,
					"internalType": "uint256",
					"name": "amount",
					"type": "uint256"
				},
				{
					"indexed": false,
					"internalType": "string",
					"name": "metadataUri",
					"type": "string"
				}
			],
			"name": "RewardTokenCreated",
			"type": "event"
		},
		{
			"anonymous": false,
			"inputs": [
				{
					"indexed": true,
					"internalType": "uint256",
					"name": "tokenId",
					"type": "uint256"
				},
				{
					"indexed": false,
					"internalType": "address",
					"name": "ownerOrApproved",
					"type": "address"
				}
			],
			"name": "RewardTokenDestroyed",
			"type": "event"
		},
		{
			"anonymous": false,
			"inputs": [
				{
					"indexed": true,
					"internalType": "address",
					"name": "operator",
					"type": "address"
				},
				{
					"indexed": true,
					"internalType": "address",
					"name": "from",
					"type": "address"
				},
				{
					"indexed": true,
					"internalType": "address",
					"name": "to",
					"type": "address"
				},
				{
					"indexed": false,
					"internalType": "uint256[]",
					"name": "ids",
					"type": "uint256[]"
				},
				{
					"indexed": false,
					"internalType": "uint256[]",
					"name": "values",
					"type": "uint256[]"
				}
			],
			"name": "TransferBatch",
			"type": "event"
		},
		{
			"anonymous": false,
			"inputs": [
				{
					"indexed": true,
					"internalType": "address",
					"name": "operator",
					"type": "address"
				},
				{
					"indexed": true,
					"internalType": "address",
					"name": "from",
					"type": "address"
				},
				{
					"indexed": true,
					"internalType": "address",
					"name": "to",
					"type": "address"
				},
				{
					"indexed": false,
					"internalType": "uint256",
					"name": "id",
					"type": "uint256"
				},
				{
					"indexed": false,
					"internalType": "uint256",
					"name": "value",
					"type": "uint256"
				}
			],
			"name": "TransferSingle",
			"type": "event"
		},
		{
			"anonymous": false,
			"inputs": [
				{
					"indexed": false,
					"internalType": "string",
					"name": "value",
					"type": "string"
				},
				{
					"indexed": true,
					"internalType": "uint256",
					"name": "id",
					"type": "uint256"
				}
			],
			"name": "URI",
			"type": "event"
		},
		{
			"inputs": [],
			"name": "Counter",
			"outputs": [
				{
					"internalType": "uint256",
					"name": "",
					"type": "uint256"
				}
			],
			"stateMutability": "view",
			"type": "function"
		},
		{
			"inputs": [],
			"name": "accessMasterAddress",
			"outputs": [
				{
					"internalType": "address",
					"name": "",
					"type": "address"
				}
			],
			"stateMutability": "view",
			"type": "function"
		},
		{
			"inputs": [
				{
					"internalType": "address",
					"name": "account",
					"type": "address"
				},
				{
					"internalType": "uint256",
					"name": "id",
					"type": "uint256"
				}
			],
			"name": "balanceOf",
			"outputs": [
				{
					"internalType": "uint256",
					"name": "",
					"type": "uint256"
				}
			],
			"stateMutability": "view",
			"type": "function"
		},
		{
			"inputs": [
				{
					"internalType": "address[]",
					"name": "accounts",
					"type": "address[]"
				},
				{
					"internalType": "uint256[]",
					"name": "ids",
					"type": "uint256[]"
				}
			],
			"name": "balanceOfBatch",
			"outputs": [
				{
					"internalType": "uint256[]",
					"name": "",
					"type": "uint256[]"
				}
			],
			"stateMutability": "view",
			"type": "function"
		},
		{
			"inputs": [
				{
					"internalType": "address",
					"name": "phygitalcontractAddr",
					"type": "address"
				},
				{
					"internalType": "uint256",
					"name": "amount",
					"type": "uint256"
				},
				{
					"internalType": "uint256",
					"name": "tokenId",
					"type": "uint256"
				},
				{
					"internalType": "bytes",
					"name": "data",
					"type": "bytes"
				},
				{
					"internalType": "string",
					"name": "_uri",
					"type": "string"
				}
			],
			"name": "createFanToken",
			"outputs": [
				{
					"internalType": "uint256",
					"name": "",
					"type": "uint256"
				}
			],
			"stateMutability": "nonpayable",
			"type": "function"
		},
		{
			"inputs": [
				{
					"internalType": "address",
					"name": "phygitalcontractAddr",
					"type": "address"
				},
				{
					"internalType": "address",
					"name": "creator",
					"type": "address"
				},
				{
					"internalType": "uint256",
					"name": "tokenId",
					"type": "uint256"
				},
				{
					"internalType": "uint256",
					"name": "amount",
					"type": "uint256"
				},
				{
					"internalType": "bytes",
					"name": "data",
					"type": "bytes"
				},
				{
					"internalType": "string",
					"name": "_uri",
					"type": "string"
				}
			],
			"name": "delegateAssetCreation",
			"outputs": [
				{
					"internalType": "uint256",
					"name": "",
					"type": "uint256"
				}
			],
			"stateMutability": "nonpayable",
			"type": "function"
		},
		{
			"inputs": [
				{
					"internalType": "uint256",
					"name": "tokenId",
					"type": "uint256"
				},
				{
					"internalType": "uint256",
					"name": "amount",
					"type": "uint256"
				}
			],
			"name": "destroyAsset",
			"outputs": [],
			"stateMutability": "nonpayable",
			"type": "function"
		},
		{
			"inputs": [
				{
					"internalType": "uint256",
					"name": "id",
					"type": "uint256"
				}
			],
			"name": "exists",
			"outputs": [
				{
					"internalType": "bool",
					"name": "",
					"type": "bool"
				}
			],
			"stateMutability": "view",
			"type": "function"
		},
		{
			"inputs": [
				{
					"internalType": "address",
					"name": "account",
					"type": "address"
				},
				{
					"internalType": "address",
					"name": "operator",
					"type": "address"
				}
			],
			"name": "isApprovedForAll",
			"outputs": [
				{
					"internalType": "bool",
					"name": "",
					"type": "bool"
				}
			],
			"stateMutability": "view",
			"type": "function"
		},
		{
			"inputs": [],
			"name": "name",
			"outputs": [
				{
					"internalType": "string",
					"name": "",
					"type": "string"
				}
			],
			"stateMutability": "view",
			"type": "function"
		},
		{
			"inputs": [
				{
					"internalType": "address",
					"name": "",
					"type": "address"
				},
				{
					"internalType": "uint256",
					"name": "",
					"type": "uint256"
				}
			],
			"name": "phygitalToRewardId",
			"outputs": [
				{
					"internalType": "uint256",
					"name": "",
					"type": "uint256"
				}
			],
			"stateMutability": "view",
			"type": "function"
		},
		{
			"inputs": [
				{
					"internalType": "address",
					"name": "from",
					"type": "address"
				},
				{
					"internalType": "address",
					"name": "to",
					"type": "address"
				},
				{
					"internalType": "uint256[]",
					"name": "ids",
					"type": "uint256[]"
				},
				{
					"internalType": "uint256[]",
					"name": "values",
					"type": "uint256[]"
				},
				{
					"internalType": "bytes",
					"name": "data",
					"type": "bytes"
				}
			],
			"name": "safeBatchTransferFrom",
			"outputs": [],
			"stateMutability": "nonpayable",
			"type": "function"
		},
		{
			"inputs": [
				{
					"internalType": "address",
					"name": "from",
					"type": "address"
				},
				{
					"internalType": "address",
					"name": "to",
					"type": "address"
				},
				{
					"internalType": "uint256",
					"name": "id",
					"type": "uint256"
				},
				{
					"internalType": "uint256",
					"name": "value",
					"type": "uint256"
				},
				{
					"internalType": "bytes",
					"name": "data",
					"type": "bytes"
				}
			],
			"name": "safeTransferFrom",
			"outputs": [],
			"stateMutability": "nonpayable",
			"type": "function"
		},
		{
			"inputs": [
				{
					"internalType": "address",
					"name": "operator",
					"type": "address"
				},
				{
					"internalType": "bool",
					"name": "approved",
					"type": "bool"
				}
			],
			"name": "setApprovalForAll",
			"outputs": [],
			"stateMutability": "nonpayable",
			"type": "function"
		},
		{
			"inputs": [
				{
					"internalType": "string",
					"name": "newuri",
					"type": "string"
				}
			],
			"name": "setURI",
			"outputs": [],
			"stateMutability": "nonpayable",
			"type": "function"
		},
		{
			"inputs": [
				{
					"internalType": "bytes4",
					"name": "interfaceId",
					"type": "bytes4"
				}
			],
			"name": "supportsInterface",
			"outputs": [
				{
					"internalType": "bool",
					"name": "",
					"type": "bool"
				}
			],
			"stateMutability": "view",
			"type": "function"
		},
		{
			"inputs": [],
			"name": "symbol",
			"outputs": [
				{
					"internalType": "string",
					"name": "",
					"type": "string"
				}
			],
			"stateMutability": "view",
			"type": "function"
		},
		{
			"inputs": [],
			"name": "totalSupply",
			"outputs": [
				{
					"internalType": "uint256",
					"name": "",
					"type": "uint256"
				}
			],
			"stateMutability": "view",
			"type": "function"
		},
		{
			"inputs": [
				{
					"internalType": "uint256",
					"name": "id",
					"type": "uint256"
				}
			],
			"name": "totalSupply",
			"outputs": [
				{
					"internalType": "uint256",
					"name": "",
					"type": "uint256"
				}
			],
			"stateMutability": "view",
			"type": "function"
		},
		{
			"inputs": [],
			"name": "tradeHub",
			"outputs": [
				{
					"internalType": "address",
					"name": "",
					"type": "address"
				}
			],
			"stateMutability": "view",
			"type": "function"
		},
		{
			"inputs": [
				{
					"internalType": "uint256",
					"name": "tokenId",
					"type": "uint256"
				}
			],
			"name": "uri",
			"outputs": [
				{
					"internalType": "string",
					"name": "",
					"type": "string"
				}
			],
			"stateMutability": "view",
			"type": "function"
		},
		{
			"inputs": [],
			"name": "version",
			"outputs": [
				{
					"internalType": "uint8",
					"name": "",
					"type": "uint8"
				}
			],
			"stateMutability": "view",
			"type": "function"
		}
	],
	"bytecode": "0x60806040523480156200001157600080fd5b5060405162001fbf38038062001fbf83398101604081905262000034916200016a565b83620000408162000093565b5060056200004f8482620002ac565b5060066200005e8382620002ac565b50600c80546001600160a01b039092166001600160a01b03199283168117909155600880549092161790555062000378915050565b6002620000a18282620002ac565b5050565b634e487b7160e01b600052604160045260246000fd5b600082601f830112620000cd57600080fd5b81516001600160401b0380821115620000ea57620000ea620000a5565b604051601f8301601f19908116603f01168101908282118183101715620001155762000115620000a5565b816040528381526020925086838588010111156200013257600080fd5b600091505b8382101562000156578582018301518183018401529082019062000137565b600093810190920192909252949350505050565b600080600080608085870312156200018157600080fd5b84516001600160401b03808211156200019957600080fd5b620001a788838901620000bb565b95506020870151915080821115620001be57600080fd5b620001cc88838901620000bb565b94506040870151915080821115620001e357600080fd5b50620001f287828801620000bb565b606087015190935090506001600160a01b03811681146200021257600080fd5b939692955090935050565b600181811c908216806200023257607f821691505b6020821081036200025357634e487b7160e01b600052602260045260246000fd5b50919050565b601f821115620002a757600081815260208120601f850160051c81016020861015620002825750805b601f850160051c820191505b81811015620002a3578281556001016200028e565b5050505b505050565b81516001600160401b03811115620002c857620002c8620000a5565b620002e081620002d984546200021d565b8462000259565b602080601f831160018114620003185760008415620002ff5750858301515b600019600386901b1c1916600185901b178555620002a3565b600085815260208120601f198616915b82811015620003495788860151825594840194600190910190840162000328565b5085821015620003685787850151600019600388901b60f8161c191681555b5050505050600190811b01905550565b611c3780620003886000396000f3fe608060405234801561001057600080fd5b50600436106101415760003560e01c806354fd4d50116100b8578063a4b110521161007c578063a4b11052146102d0578063bd85b039146102e3578063d5e5701814610303578063e985e9c514610316578063edf8706f14610329578063f242432a1461033c57600080fd5b806354fd4d501461025d5780635e3eeef9146102775780637ab00715146102a257806395d89b41146102b5578063a22cb465146102bd57600080fd5b80630e89341c1161010a5780630e89341c146101e457806318160ddd146101f75780632eb2c2d6146101ff5780634e1273f4146102125780634eeca076146102325780634f558e791461023b57600080fd5b8062fdd58e1461014657806301ffc9a71461016c57806302fe53051461018f57806306fdde03146101a45780630aa7c854146101b9575b600080fd5b61015961015436600461135a565b61034f565b6040519081526020015b60405180910390f35b61017f61017a36600461139a565b610377565b6040519015158152602001610163565b6101a261019d366004611475565b610382565b005b6101ac610459565b60405161016391906114f8565b6008546101cc906001600160a01b031681565b6040516001600160a01b039091168152602001610163565b6101ac6101f236600461150b565b6104e7565b600454610159565b6101a261020d3660046115b3565b610589565b61022561022036600461165d565b6105f0565b6040516101639190611758565b61015960095481565b61017f61024936600461150b565b600090815260036020526040902054151590565b610265600181565b60405160ff9091168152602001610163565b61015961028536600461135a565b600b60209081526000928352604080842090915290825290205481565b6101a26102b036600461176b565b6106c5565b6101ac610785565b6101a26102cb36600461179b565b610792565b6007546101cc906001600160a01b031681565b6101596102f136600461150b565b60009081526003602052604090205490565b6101596103113660046117d2565b6107a1565b61017f61032436600461182a565b610883565b61015961033736600461185d565b6108b1565b6101a261034a3660046118f4565b610a5b565b6000818152602081815260408083206001600160a01b03861684529091529020545b92915050565b600061037182610aba565b600c546001600160a01b0316636d70f7ae336040516001600160e01b031960e084901b1681526001600160a01b039091166004820152602401602060405180830381865afa1580156103d8573d6000803e3d6000fd5b505050506040513d601f19601f820116820180604052508101906103fc9190611959565b61044d5760405162461bcd60e51b815260206004820152601a60248201527f526577617264546f6b656e3a20556e617574686f72697a65642100000000000060448201526064015b60405180910390fd5b61045681610b0a565b50565b6005805461046690611976565b80601f016020809104026020016040519081016040528092919081815260200182805461049290611976565b80156104df5780601f106104b4576101008083540402835291602001916104df565b820191906000526020600020905b8154815290600101906020018083116104c257829003601f168201915b505050505081565b6000818152600a6020526040902080546060919061050490611976565b80601f016020809104026020016040519081016040528092919081815260200182805461053090611976565b801561057d5780601f106105525761010080835404028352916020019161057d565b820191906000526020600020905b81548152906001019060200180831161056057829003601f168201915b50505050509050919050565b336001600160a01b03861681148015906105aa57506105a88682610883565b155b156105db5760405163711bec9160e11b81526001600160a01b03808316600483015287166024820152604401610444565b6105e88686868686610b16565b505050505050565b606081518351146106215781518351604051635b05999160e01b815260048101929092526024820152604401610444565b6000835167ffffffffffffffff81111561063d5761063d6113be565b604051908082528060200260200182016040528015610666578160200160208202803683370190505b50905060005b84518110156106bd576020808202860101516106909060208084028701015161034f565b8282815181106106a2576106a26119b0565b60209081029190910101526106b6816119dc565b905061066c565b509392505050565b806106d0338461034f565b146107385760405162461bcd60e51b815260206004820152603260248201527f526577617264546f6b656e3a2043616c6c6572206973206e6f7420746f6b656e604482015271081bdddb995c881bdc88185c1c1c9bdd995960721b6064820152608401610444565b610743338383610b7d565b817f77ae73e9fd17485abbf01dffbf650cf3ffb79771e6e23a50beffcc20f5ab2107336040516001600160a01b03909116815260200160405180910390a25050565b6006805461046690611976565b61079d338383610be5565b5050565b6001600160a01b0385166000908152600b602090815260408083208684529091528120548190156107f657506001600160a01b0386166000908152600b60209081526040808320878452909152902054610811565b60098054906000610806836119dc565b919050555060095490505b61081d33828887610c7b565b6000818152600a602052604090206108358482611a40565b5085336001600160a01b0316827fec01398bf72ebae4ad81f8babbd6de07baf966f47c9998ce8c6e3ff8b8d2b5748660405161087191906114f8565b60405180910390a49695505050505050565b6001600160a01b03918216600090815260016020908152604080832093909416825291909152205460ff1690565b600c546000906001600160a01b0316636d70f7ae336040516001600160e01b031960e084901b1681526001600160a01b039091166004820152602401602060405180830381865afa15801561090a573d6000803e3d6000fd5b505050506040513d601f19601f8201168201806040525081019061092e9190611959565b61097a5760405162461bcd60e51b815260206004820152601a60248201527f526577617264546f6b656e3a20556e617574686f72697a6564210000000000006044820152606401610444565b6001600160a01b0387166000908152600b60209081526040808320888452909152812054156109cd57506001600160a01b0387166000908152600b602090815260408083208884529091529020546109e8565b600980549060006109dd836119dc565b919050555060095490505b6109f487828787610c7b565b6000818152600a60205260409020610a0c8482611a40565b5084336001600160a01b0316827fec01398bf72ebae4ad81f8babbd6de07baf966f47c9998ce8c6e3ff8b8d2b57486604051610a4891906114f8565b60405180910390a4979650505050505050565b336001600160a01b0386168114801590610a7c5750610a7a8682610883565b155b15610aad5760405163711bec9160e11b81526001600160a01b03808316600483015287166024820152604401610444565b6105e88686868686610cd8565b60006001600160e01b03198216636cdb3d1360e11b1480610aeb57506001600160e01b031982166303a24d0760e21b145b8061037157506301ffc9a760e01b6001600160e01b0319831614610371565b600261079d8282611a40565b6001600160a01b038416610b4057604051632bfa23e760e11b815260006004820152602401610444565b6001600160a01b038516610b6957604051626a0d4560e21b815260006004820152602401610444565b610b768585858585610d66565b5050505050565b6001600160a01b038316610ba657604051626a0d4560e21b815260006004820152602401610444565b604080516001808252602082018590528183019081526060820184905260a08201909252600060808201818152919291610b7691879185908590610d66565b6001600160a01b038216610c0e5760405162ced3e160e81b815260006004820152602401610444565b6001600160a01b03838116600081815260016020908152604080832094871680845294825291829020805460ff191686151590811790915591519182527f17307eab39ab6107e8899845ad3d59bd9653f200f220920489ca2b5937696c31910160405180910390a3505050565b6001600160a01b038416610ca557604051632bfa23e760e11b815260006004820152602401610444565b604080516001808252602082018690528183019081526060820185905260808201909252906105e8600087848487610d66565b6001600160a01b038416610d0257604051632bfa23e760e11b815260006004820152602401610444565b6001600160a01b038516610d2b57604051626a0d4560e21b815260006004820152602401610444565b60408051600180825260208201869052818301908152606082018590526080820190925290610d5d8787848487610d66565b50505050505050565b610d7285858585610db9565b6001600160a01b03841615610b765782513390600103610dab5760208481015190840151610da4838989858589610f14565b50506105e8565b6105e8818787878787611038565b610dc584848484611121565b6001600160a01b038416610e78576000805b8351811015610e5e576000838281518110610df457610df46119b0565b602002602001015190508060036000878581518110610e1557610e156119b0565b602002602001015181526020019081526020016000206000828254610e3a9190611b00565b90915550610e4a90508184611b00565b92505080610e57906119dc565b9050610dd7565b508060046000828254610e719190611b00565b9091555050505b6001600160a01b038316610f0e576000805b8351811015610f02576000838281518110610ea757610ea76119b0565b602002602001015190508060036000878581518110610ec857610ec86119b0565b602002602001015181526020019081526020016000206000828254039250508190555080830192505080610efb906119dc565b9050610e8a565b50600480549190910390555b50505050565b6001600160a01b0384163b156105e85760405163f23a6e6160e01b81526001600160a01b0385169063f23a6e6190610f589089908990889088908890600401611b13565b6020604051808303816000875af1925050508015610f93575060408051601f3d908101601f19168201909252610f9091810190611b58565b60015b610ffc573d808015610fc1576040519150601f19603f3d011682016040523d82523d6000602084013e610fc6565b606091505b508051600003610ff457604051632bfa23e760e11b81526001600160a01b0386166004820152602401610444565b805181602001fd5b6001600160e01b0319811663f23a6e6160e01b14610d5d57604051632bfa23e760e11b81526001600160a01b0386166004820152602401610444565b6001600160a01b0384163b156105e85760405163bc197c8160e01b81526001600160a01b0385169063bc197c819061107c9089908990889088908890600401611b75565b6020604051808303816000875af19250505080156110b7575060408051601f3d908101601f191682019092526110b491810190611b58565b60015b6110e5573d808015610fc1576040519150601f19603f3d011682016040523d82523d6000602084013e610fc6565b6001600160e01b0319811663bc197c8160e01b14610d5d57604051632bfa23e760e11b81526001600160a01b0386166004820152602401610444565b80518251146111505781518151604051635b05999160e01b815260048101929092526024820152604401610444565b3360005b835181101561125f576020818102858101820151908501909101516001600160a01b03881615611207576000828152602081815260408083206001600160a01b038c168452909152902054818110156111e0576040516303dee4c560e01b81526001600160a01b038a166004820152602481018290526044810183905260648101849052608401610444565b6000838152602081815260408083206001600160a01b038d16845290915290209082900390555b6001600160a01b0387161561124c576000828152602081815260408083206001600160a01b038b16845290915281208054839290611246908490611b00565b90915550505b505080611258906119dc565b9050611154565b5082516001036112e05760208301516000906020840151909150856001600160a01b0316876001600160a01b0316846001600160a01b03167fc3d58168c5ae7397731d063d5bbf3d657854427343f4c083240f7aacaa2d0f6285856040516112d1929190918252602082015260400190565b60405180910390a45050610b76565b836001600160a01b0316856001600160a01b0316826001600160a01b03167f4a39dc06d4c0dbc64b70af90fd698a233a518aa5d07e595d983b8c0526c8f7fb868660405161132f929190611bd3565b60405180910390a45050505050565b80356001600160a01b038116811461135557600080fd5b919050565b6000806040838503121561136d57600080fd5b6113768361133e565b946020939093013593505050565b6001600160e01b03198116811461045657600080fd5b6000602082840312156113ac57600080fd5b81356113b781611384565b9392505050565b634e487b7160e01b600052604160045260246000fd5b604051601f8201601f1916810167ffffffffffffffff811182821017156113fd576113fd6113be565b604052919050565b600082601f83011261141657600080fd5b813567ffffffffffffffff811115611430576114306113be565b611443601f8201601f19166020016113d4565b81815284602083860101111561145857600080fd5b816020850160208301376000918101602001919091529392505050565b60006020828403121561148757600080fd5b813567ffffffffffffffff81111561149e57600080fd5b6114aa84828501611405565b949350505050565b6000815180845260005b818110156114d8576020818501810151868301820152016114bc565b506000602082860101526020601f19601f83011685010191505092915050565b6020815260006113b760208301846114b2565b60006020828403121561151d57600080fd5b5035919050565b600067ffffffffffffffff82111561153e5761153e6113be565b5060051b60200190565b600082601f83011261155957600080fd5b8135602061156e61156983611524565b6113d4565b82815260059290921b8401810191818101908684111561158d57600080fd5b8286015b848110156115a85780358352918301918301611591565b509695505050505050565b600080600080600060a086880312156115cb57600080fd5b6115d48661133e565b94506115e26020870161133e565b9350604086013567ffffffffffffffff808211156115ff57600080fd5b61160b89838a01611548565b9450606088013591508082111561162157600080fd5b61162d89838a01611548565b9350608088013591508082111561164357600080fd5b5061165088828901611405565b9150509295509295909350565b6000806040838503121561167057600080fd5b823567ffffffffffffffff8082111561168857600080fd5b818501915085601f83011261169c57600080fd5b813560206116ac61156983611524565b82815260059290921b840181019181810190898411156116cb57600080fd5b948201945b838610156116f0576116e18661133e565b825294820194908201906116d0565b9650508601359250508082111561170657600080fd5b5061171385828601611548565b9150509250929050565b600081518084526020808501945080840160005b8381101561174d57815187529582019590820190600101611731565b509495945050505050565b6020815260006113b7602083018461171d565b6000806040838503121561177e57600080fd5b50508035926020909101359150565b801515811461045657600080fd5b600080604083850312156117ae57600080fd5b6117b78361133e565b915060208301356117c78161178d565b809150509250929050565b600080600080600060a086880312156117ea57600080fd5b6117f38661133e565b94506020860135935060408601359250606086013567ffffffffffffffff8082111561181e57600080fd5b61162d89838a01611405565b6000806040838503121561183d57600080fd5b6118468361133e565b91506118546020840161133e565b90509250929050565b60008060008060008060c0878903121561187657600080fd5b61187f8761133e565b955061188d6020880161133e565b94506040870135935060608701359250608087013567ffffffffffffffff808211156118b857600080fd5b6118c48a838b01611405565b935060a08901359150808211156118da57600080fd5b506118e789828a01611405565b9150509295509295509295565b600080600080600060a0868803121561190c57600080fd5b6119158661133e565b94506119236020870161133e565b93506040860135925060608601359150608086013567ffffffffffffffff81111561194d57600080fd5b61165088828901611405565b60006020828403121561196b57600080fd5b81516113b78161178d565b600181811c9082168061198a57607f821691505b6020821081036119aa57634e487b7160e01b600052602260045260246000fd5b50919050565b634e487b7160e01b600052603260045260246000fd5b634e487b7160e01b600052601160045260246000fd5b6000600182016119ee576119ee6119c6565b5060010190565b601f821115611a3b57600081815260208120601f850160051c81016020861015611a1c5750805b601f850160051c820191505b818110156105e857828155600101611a28565b505050565b815167ffffffffffffffff811115611a5a57611a5a6113be565b611a6e81611a688454611976565b846119f5565b602080601f831160018114611aa35760008415611a8b5750858301515b600019600386901b1c1916600185901b1785556105e8565b600085815260208120601f198616915b82811015611ad257888601518255948401946001909101908401611ab3565b5085821015611af05787850151600019600388901b60f8161c191681555b5050505050600190811b01905550565b80820180821115610371576103716119c6565b6001600160a01b03868116825285166020820152604081018490526060810183905260a060808201819052600090611b4d908301846114b2565b979650505050505050565b600060208284031215611b6a57600080fd5b81516113b781611384565b6001600160a01b0386811682528516602082015260a060408201819052600090611ba19083018661171d565b8281036060840152611bb3818661171d565b90508281036080840152611bc781856114b2565b98975050505050505050565b604081526000611be6604083018561171d565b8281036020840152611bf8818561171d565b9594505050505056fea2646970667358221220cf767e2b2cb548bce3d01b0727c0d533bf749985a812e3c26d4f1629298ea40e64736f6c63430008140033",
	"linkReferences": {},
	"deployedLinkReferences": {}
}